:100000000C942A000C9434000C9434000C943400AA
:100010000C9434000C9434000C9434000C94340090
:100020000C9434000C9434000C9434000C94340080
:100030000C9434000C9434000C9434000C94340070
:100040000C9434000C9434000C9434000C94340060
:100050000C94340011241FBECFE5D8E0DEBFCDBF25
:100060000E945B010C94AA010C9400004423B9F196
:10007000413009F06BC0813089F028F08230C9F03E
:10008000833011F108952AB381E090E002C0880F17
:10009000991F6A95E2F7822B8ABB089527B381E006
:1000A00090E002C0880F991F6A95E2F7822B87BB08
:1000B000089524B381E090E002C0880F991F6A95EB
:1000C000E2F7822B84BB089521B381E090E002C067
:1000D000880F991F6A95E2F7822B81BB08958130C2
:1000E00091F028F08230D9F0833029F108952AB3B5
:1000F00081E090E002C0880F991F6A95E2F7809531
:1001000082238ABB089527B381E090E002C0880F64
:10011000991F6A95E2F78095822387BB089524B3DF
:1001200081E090E002C0880F991F6A95E2F7809500
:10013000822384BB089521B381E090E002C0880F40
:10014000991F6A95E2F78095822381BB0895442325
:10015000B9F1413009F06BC0813089F028F082306C
:10016000C9F0833011F108952BB381E090E002C013
:10017000880F991F6A95E2F7822B8BBB089528B3ED
:1001800081E090E002C0880F991F6A95E2F7822B08
:1001900088BB089525B381E090E002C0880F991FC5
:1001A0006A95E2F7822B85BB089522B381E090E047
:1001B00002C0880F991F6A95E2F7822B82BB0895CF
:1001C000813091F028F08230D9F0833029F1089500
:1001D0002BB381E090E002C0880F991F6A95E2F787
:1001E000809582238BBB089528B381E090E002C004
:1001F000880F991F6A95E2F78095822388BB08953E
:1002000025B381E090E002C0880F991F6A95E2F75C
:100210008095822385BB089522B381E090E002C0DF
:10022000880F991F6A95E2F78095822382BB089513
:10023000813089F028F08230C9F0833011F10895BF
:100240002BB381E090E002C0880F991F6A95E2F716
:1002500082278BBB089528B381E090E002C0880F0D
:10026000991F6A95E2F7822788BB089525B381E03C
:1002700090E002C0880F991F6A95E2F7822785BB3C
:10028000089522B381E090E002C0880F991F6A951B
:10029000E2F7822782BB089541E00E94360008956C
:1002A00041E00E94A700089540E00E94A700089541
:1002B0000E94180108950E948F0162E082E00E946E
:1002C0004C0163E083E00E944C0180E00E94A501A4
:1002D000813391F018F4803331F0F7CF823389F015
:1002E0008333A1F0F2CF62E082E00E94540163E028
:1002F00083E00E945401E9CF62E082E00E9458014D
:10030000E4CF63E083E00E945801DFCF62E082E047
:100310000E94500163E083E00E945001D6CF40E08C
:1003200065E081E00E94360041E066E081E00E94E5
:10033000360040E067E081E00E94360040E064E083
:1003400081E00E9436006E9A08958FB9779BFECFA8
:080350008FB10895F894FFCF6E
:00000001FF
