:100000000C942A000C9434000C9434000C943400AA
:100010000C9434000C9434000C9434000C94340090
:100020000C9434000C9434000C9434000C94340080
:100030000C9434000C9434000C9434000C94340070
:100040000C9434000C9434000C9434000C94340060
:100050000C94340011241FBECFE5D8E0DEBFCDBF25
:100060000E9418010C9468010C9400004423B9F11B
:10007000413009F06BC0813089F028F08230C9F03E
:10008000833011F108952AB381E090E002C0880F17
:10009000991F6A95E2F7822B8ABB089527B381E006
:1000A00090E002C0880F991F6A95E2F7822B87BB08
:1000B000089524B381E090E002C0880F991F6A95EB
:1000C000E2F7822B84BB089521B381E090E002C067
:1000D000880F991F6A95E2F7822B81BB08958130C2
:1000E00091F028F08230D9F0833029F108952AB3B5
:1000F00081E090E002C0880F991F6A95E2F7809531
:1001000082238ABB089527B381E090E002C0880F64
:10011000991F6A95E2F78095822387BB089524B3DF
:1001200081E090E002C0880F991F6A95E2F7809500
:10013000822384BB089521B381E090E002C0880F40
:10014000991F6A95E2F78095822381BB0895442325
:10015000B9F1413009F06BC0813089F028F082306C
:10016000C9F0833011F108952BB381E090E002C013
:10017000880F991F6A95E2F7822B8BBB089528B3ED
:1001800081E090E002C0880F991F6A95E2F7822B08
:1001900088BB089525B381E090E002C0880F991FC5
:1001A0006A95E2F7822B85BB089522B381E090E047
:1001B00002C0880F991F6A95E2F7822B82BB0895CF
:1001C000813091F028F08230D9F0833029F1089500
:1001D0002BB381E090E002C0880F991F6A95E2F787
:1001E000809582238BBB089528B381E090E002C004
:1001F000880F991F6A95E2F78095822388BB08953E
:1002000025B381E090E002C0880F991F6A95E2F75C
:100210008095822385BB089522B381E090E002C0DF
:10022000880F991F6A95E2F78095822382BB089513
:1002300060E080E00E94320160E080E00E945101B5
:100240000E945A012FEF83ED90E3215080409040AF
:10025000E1F700C000000E9464018823E1F30E94DE
:100260005501F9CFCF93DF93C82FD62F41E065E03A
:1002700081E00E94360040E066E081E00E943600A6
:1002800041E067E081E00E94360041E06D2F8C2F55
:100290000E9436006E9A6C9A689A699ADF91CF91A3
:1002A000089540E00E94A70008958FB9779BFECF84
:1002B0008FB10895899A8898549A539A80B5866820
:1002C00080BD87E689B908955F9BFECF8CB1089504
:0402D000F894FFCFD0
:00000001FF
